{
  "_format": "hh-sol-artifact-1",
  "contractName": "DappFund",
  "sourceName": "contracts/DappFund.sol",
  "abi": [
    {
      "inputs": [
        {
          "internalType": "uint256",
          "name": "_charityTax",
          "type": "uint256"
        }
      ],
      "stateMutability": "nonpayable",
      "type": "constructor"
    },
    {
      "anonymous": false,
      "inputs": [
        {
          "indexed": true,
          "internalType": "address",
          "name": "previousOwner",
          "type": "address"
        },
        {
          "indexed": true,
          "internalType": "address",
          "name": "newOwner",
          "type": "address"
        }
      ],
      "name": "OwnershipTransferred",
      "type": "event"
    },
    {
      "anonymous": false,
      "inputs": [
        {
          "indexed": true,
          "internalType": "bytes32",
          "name": "role",
          "type": "bytes32"
        },
        {
          "indexed": true,
          "internalType": "bytes32",
          "name": "previousAdminRole",
          "type": "bytes32"
        },
        {
          "indexed": true,
          "internalType": "bytes32",
          "name": "newAdminRole",
          "type": "bytes32"
        }
      ],
      "name": "RoleAdminChanged",
      "type": "event"
    },
    {
      "anonymous": false,
      "inputs": [
        {
          "indexed": true,
          "internalType": "bytes32",
          "name": "role",
          "type": "bytes32"
        },
        {
          "indexed": true,
          "internalType": "address",
          "name": "account",
          "type": "address"
        },
        {
          "indexed": true,
          "internalType": "address",
          "name": "sender",
          "type": "address"
        }
      ],
      "name": "RoleGranted",
      "type": "event"
    },
    {
      "anonymous": false,
      "inputs": [
        {
          "indexed": true,
          "internalType": "bytes32",
          "name": "role",
          "type": "bytes32"
        },
        {
          "indexed": true,
          "internalType": "address",
          "name": "account",
          "type": "address"
        },
        {
          "indexed": true,
          "internalType": "address",
          "name": "sender",
          "type": "address"
        }
      ],
      "name": "RoleRevoked",
      "type": "event"
    },
    {
      "inputs": [],
      "name": "DEFAULT_ADMIN_ROLE",
      "outputs": [
        {
          "internalType": "bytes32",
          "name": "",
          "type": "bytes32"
        }
      ],
      "stateMutability": "view",
      "type": "function"
    },
    {
      "inputs": [],
      "name": "USDe",
      "outputs": [
        {
          "internalType": "contract IERC20",
          "name": "",
          "type": "address"
        }
      ],
      "stateMutability": "view",
      "type": "function"
    },
    {
      "inputs": [
        {
          "internalType": "uint256",
          "name": "_taxPct",
          "type": "uint256"
        }
      ],
      "name": "changeTax",
      "outputs": [],
      "stateMutability": "nonpayable",
      "type": "function"
    },
    {
      "inputs": [
        {
          "internalType": "uint256",
          "name": "",
          "type": "uint256"
        }
      ],
      "name": "charityExist",
      "outputs": [
        {
          "internalType": "bool",
          "name": "",
          "type": "bool"
        }
      ],
      "stateMutability": "view",
      "type": "function"
    },
    {
      "inputs": [],
      "name": "charityTax",
      "outputs": [
        {
          "internalType": "uint256",
          "name": "",
          "type": "uint256"
        }
      ],
      "stateMutability": "view",
      "type": "function"
    },
    {
      "inputs": [
        {
          "internalType": "string",
          "name": "name",
          "type": "string"
        },
        {
          "internalType": "string",
          "name": "fullname",
          "type": "string"
        },
        {
          "internalType": "string",
          "name": "profile",
          "type": "string"
        },
        {
          "internalType": "string",
          "name": "description",
          "type": "string"
        },
        {
          "internalType": "string",
          "name": "image",
          "type": "string"
        },
        {
          "internalType": "uint256",
          "name": "amount",
          "type": "uint256"
        }
      ],
      "name": "createCharity",
      "outputs": [],
      "stateMutability": "nonpayable",
      "type": "function"
    },
    {
      "inputs": [
        {
          "internalType": "uint256",
          "name": "id",
          "type": "uint256"
        }
      ],
      "name": "deleteCharity",
      "outputs": [],
      "stateMutability": "nonpayable",
      "type": "function"
    },
    {
      "inputs": [
        {
          "internalType": "uint256",
          "name": "id",
          "type": "uint256"
        },
        {
          "internalType": "string",
          "name": "fullname",
          "type": "string"
        },
        {
          "internalType": "string",
          "name": "comment",
          "type": "string"
        },
        {
          "internalType": "uint256",
          "name": "_amount",
          "type": "uint256"
        }
      ],
      "name": "donate",
      "outputs": [],
      "stateMutability": "nonpayable",
      "type": "function"
    },
    {
      "inputs": [],
      "name": "getCharities",
      "outputs": [
        {
          "components": [
            {
              "internalType": "uint256",
              "name": "id",
              "type": "uint256"
            },
            {
              "internalType": "address",
              "name": "owner",
              "type": "address"
            },
            {
              "internalType": "string",
              "name": "name",
              "type": "string"
            },
            {
              "internalType": "string",
              "name": "fullname",
              "type": "string"
            },
            {
              "internalType": "string",
              "name": "description",
              "type": "string"
            },
            {
              "internalType": "string",
              "name": "image",
              "type": "string"
            },
            {
              "internalType": "string",
              "name": "profile",
              "type": "string"
            },
            {
              "internalType": "uint256",
              "name": "amount",
              "type": "uint256"
            },
            {
              "internalType": "uint256",
              "name": "donations",
              "type": "uint256"
            },
            {
              "internalType": "uint256",
              "name": "raised",
              "type": "uint256"
            },
            {
              "internalType": "uint256",
              "name": "timestamp",
              "type": "uint256"
            },
            {
              "internalType": "bool",
              "name": "deleted",
              "type": "bool"
            },
            {
              "internalType": "bool",
              "name": "banned",
              "type": "bool"
            }
          ],
          "internalType": "struct DappFund.CharityStruct[]",
          "name": "Charities",
          "type": "tuple[]"
        }
      ],
      "stateMutability": "view",
      "type": "function"
    },
    {
      "inputs": [
        {
          "internalType": "uint256",
          "name": "id",
          "type": "uint256"
        }
      ],
      "name": "getCharity",
      "outputs": [
        {
          "components": [
            {
              "internalType": "uint256",
              "name": "id",
              "type": "uint256"
            },
            {
              "internalType": "address",
              "name": "owner",
              "type": "address"
            },
            {
              "internalType": "string",
              "name": "name",
              "type": "string"
            },
            {
              "internalType": "string",
              "name": "fullname",
              "type": "string"
            },
            {
              "internalType": "string",
              "name": "description",
              "type": "string"
            },
            {
              "internalType": "string",
              "name": "image",
              "type": "string"
            },
            {
              "internalType": "string",
              "name": "profile",
              "type": "string"
            },
            {
              "internalType": "uint256",
              "name": "amount",
              "type": "uint256"
            },
            {
              "internalType": "uint256",
              "name": "donations",
              "type": "uint256"
            },
            {
              "internalType": "uint256",
              "name": "raised",
              "type": "uint256"
            },
            {
              "internalType": "uint256",
              "name": "timestamp",
              "type": "uint256"
            },
            {
              "internalType": "bool",
              "name": "deleted",
              "type": "bool"
            },
            {
              "internalType": "bool",
              "name": "banned",
              "type": "bool"
            }
          ],
          "internalType": "struct DappFund.CharityStruct",
          "name": "",
          "type": "tuple"
        }
      ],
      "stateMutability": "view",
      "type": "function"
    },
    {
      "inputs": [],
      "name": "getMyCharities",
      "outputs": [
        {
          "components": [
            {
              "internalType": "uint256",
              "name": "id",
              "type": "uint256"
            },
            {
              "internalType": "address",
              "name": "owner",
              "type": "address"
            },
            {
              "internalType": "string",
              "name": "name",
              "type": "string"
            },
            {
              "internalType": "string",
              "name": "fullname",
              "type": "string"
            },
            {
              "internalType": "string",
              "name": "description",
              "type": "string"
            },
            {
              "internalType": "string",
              "name": "image",
              "type": "string"
            },
            {
              "internalType": "string",
              "name": "profile",
              "type": "string"
            },
            {
              "internalType": "uint256",
              "name": "amount",
              "type": "uint256"
            },
            {
              "internalType": "uint256",
              "name": "donations",
              "type": "uint256"
            },
            {
              "internalType": "uint256",
              "name": "raised",
              "type": "uint256"
            },
            {
              "internalType": "uint256",
              "name": "timestamp",
              "type": "uint256"
            },
            {
              "internalType": "bool",
              "name": "deleted",
              "type": "bool"
            },
            {
              "internalType": "bool",
              "name": "banned",
              "type": "bool"
            }
          ],
          "internalType": "struct DappFund.CharityStruct[]",
          "name": "Charities",
          "type": "tuple[]"
        }
      ],
      "stateMutability": "view",
      "type": "function"
    },
    {
      "inputs": [
        {
          "internalType": "bytes32",
          "name": "role",
          "type": "bytes32"
        }
      ],
      "name": "getRoleAdmin",
      "outputs": [
        {
          "internalType": "bytes32",
          "name": "",
          "type": "bytes32"
        }
      ],
      "stateMutability": "view",
      "type": "function"
    },
    {
      "inputs": [
        {
          "internalType": "uint256",
          "name": "id",
          "type": "uint256"
        }
      ],
      "name": "getSupports",
      "outputs": [
        {
          "components": [
            {
              "internalType": "uint256",
              "name": "id",
              "type": "uint256"
            },
            {
              "internalType": "uint256",
              "name": "cid",
              "type": "uint256"
            },
            {
              "internalType": "string",
              "name": "fullname",
              "type": "string"
            },
            {
              "internalType": "uint256",
              "name": "amount",
              "type": "uint256"
            },
            {
              "internalType": "uint256",
              "name": "timestamp",
              "type": "uint256"
            },
            {
              "internalType": "string",
              "name": "comment",
              "type": "string"
            },
            {
              "internalType": "address",
              "name": "supporter",
              "type": "address"
            }
          ],
          "internalType": "struct DappFund.SupportStruct[]",
          "name": "",
          "type": "tuple[]"
        }
      ],
      "stateMutability": "view",
      "type": "function"
    },
    {
      "inputs": [
        {
          "internalType": "bytes32",
          "name": "role",
          "type": "bytes32"
        },
        {
          "internalType": "address",
          "name": "account",
          "type": "address"
        }
      ],
      "name": "grantRole",
      "outputs": [],
      "stateMutability": "nonpayable",
      "type": "function"
    },
    {
      "inputs": [
        {
          "internalType": "bytes32",
          "name": "role",
          "type": "bytes32"
        },
        {
          "internalType": "address",
          "name": "account",
          "type": "address"
        }
      ],
      "name": "hasRole",
      "outputs": [
        {
          "internalType": "bool",
          "name": "",
          "type": "bool"
        }
      ],
      "stateMutability": "view",
      "type": "function"
    },
    {
      "inputs": [],
      "name": "owner",
      "outputs": [
        {
          "internalType": "address",
          "name": "",
          "type": "address"
        }
      ],
      "stateMutability": "view",
      "type": "function"
    },
    {
      "inputs": [],
      "name": "renounceOwnership",
      "outputs": [],
      "stateMutability": "nonpayable",
      "type": "function"
    },
    {
      "inputs": [
        {
          "internalType": "bytes32",
          "name": "role",
          "type": "bytes32"
        },
        {
          "internalType": "address",
          "name": "account",
          "type": "address"
        }
      ],
      "name": "renounceRole",
      "outputs": [],
      "stateMutability": "nonpayable",
      "type": "function"
    },
    {
      "inputs": [
        {
          "internalType": "bytes32",
          "name": "role",
          "type": "bytes32"
        },
        {
          "internalType": "address",
          "name": "account",
          "type": "address"
        }
      ],
      "name": "revokeRole",
      "outputs": [],
      "stateMutability": "nonpayable",
      "type": "function"
    },
    {
      "inputs": [
        {
          "internalType": "bytes4",
          "name": "interfaceId",
          "type": "bytes4"
        }
      ],
      "name": "supportsInterface",
      "outputs": [
        {
          "internalType": "bool",
          "name": "",
          "type": "bool"
        }
      ],
      "stateMutability": "view",
      "type": "function"
    },
    {
      "inputs": [
        {
          "internalType": "uint256",
          "name": "id",
          "type": "uint256"
        }
      ],
      "name": "toggleBan",
      "outputs": [],
      "stateMutability": "nonpayable",
      "type": "function"
    },
    {
      "inputs": [
        {
          "internalType": "address",
          "name": "from",
          "type": "address"
        },
        {
          "internalType": "address",
          "name": "recipient",
          "type": "address"
        },
        {
          "internalType": "uint256",
          "name": "amount",
          "type": "uint256"
        }
      ],
      "name": "transferFromUSDe",
      "outputs": [
        {
          "internalType": "bool",
          "name": "",
          "type": "bool"
        }
      ],
      "stateMutability": "nonpayable",
      "type": "function"
    },
    {
      "inputs": [
        {
          "internalType": "address",
          "name": "newOwner",
          "type": "address"
        }
      ],
      "name": "transferOwnership",
      "outputs": [],
      "stateMutability": "nonpayable",
      "type": "function"
    },
    {
      "inputs": [
        {
          "internalType": "address",
          "name": "recipient",
          "type": "address"
        },
        {
          "internalType": "uint256",
          "name": "amount",
          "type": "uint256"
        }
      ],
      "name": "transferUSDe",
      "outputs": [
        {
          "internalType": "bool",
          "name": "",
          "type": "bool"
        }
      ],
      "stateMutability": "nonpayable",
      "type": "function"
    },
    {
      "inputs": [
        {
          "internalType": "uint256",
          "name": "id",
          "type": "uint256"
        },
        {
          "internalType": "string",
          "name": "name",
          "type": "string"
        },
        {
          "internalType": "string",
          "name": "fullname",
          "type": "string"
        },
        {
          "internalType": "string",
          "name": "profile",
          "type": "string"
        },
        {
          "internalType": "string",
          "name": "description",
          "type": "string"
        },
        {
          "internalType": "string",
          "name": "image",
          "type": "string"
        },
        {
          "internalType": "uint256",
          "name": "amount",
          "type": "uint256"
        }
      ],
      "name": "updateCharity",
      "outputs": [],
      "stateMutability": "nonpayable",
      "type": "function"
    }
  ],
  "bytecode": "0x60806040523480156200001157600080fd5b5060405162002f0938038062002f098339810160408190526200003491620000be565b6200003f336200006e565b600580546001600160a01b03191673426e7d03f9803dd11cb8616c65b99a3c0afea6de179055600455620000d8565b600080546001600160a01b038381166001600160a01b0319831681178455604051919092169283917f8be0079c531659141344cd1fd0a4f28419497f9722a3daafe3b4186f6b6457e09190a35050565b600060208284031215620000d157600080fd5b5051919050565b612e2180620000e86000396000f3fe608060405234801561001057600080fd5b50600436106101735760003560e01c806391d14854116100de578063b48c06dd11610097578063d547741f11610071578063d547741f14610343578063ed57247114610356578063f2fde38b14610369578063fd67db811461037c57600080fd5b8063b48c06dd146102fa578063cdb532b91461031d578063d16095021461033057600080fd5b806391d14854146102865780639502473414610299578063a217fddf146102b9578063a7c0302a146102c1578063ac3238c1146102d4578063b1a1b559146102e757600080fd5b80633e45c8af116101305780633e45c8af1461021657806348112c6f14610229578063586619291461023e578063715018a6146102465780638da5cb5b1461024e5780639138f9a51461027357600080fd5b806301ffc9a714610178578063063165a3146101a0578063248a9ca3146101b55780632f2ff15d146101e757806336568abe146101fa5780633d7847831461020d575b600080fd5b61018b6101863660046124b1565b61039c565b60405190151581526020015b60405180910390f35b6101b36101ae36600461257e565b6103d3565b005b6101d96101c3366004612658565b6000908152600160208190526040909120015490565b604051908152602001610197565b6101b36101f536600461268d565b610721565b6101b361020836600461268d565b61074c565b6101d960045481565b6101b3610224366004612658565b6107ca565b610231610834565b60405161019791906127fd565b610231610d26565b6101b3611216565b6000546001600160a01b03165b6040516001600160a01b039091168152602001610197565b61018b61028136600461285f565b61122a565b61018b61029436600461268d565b6112f6565b6102ac6102a7366004612658565b611321565b604051610197919061289b565b6101d9600081565b6101b36102cf366004612961565b6114f5565b6101b36102e2366004612658565b6117d2565b61018b6102f53660046129d6565b611834565b61018b610308366004612658565b60086020526000908152604090205460ff1681565b6101b361032b366004612658565b6118f3565b60055461025b906001600160a01b031681565b6101b361035136600461268d565b61199e565b6101b3610364366004612a00565b6119c4565b6101b3610377366004612ae5565b611ca5565b61038f61038a366004612658565b611d1e565b6040516101979190612b00565b60006001600160e01b03198216637965db0b60e01b14806103cd57506301ffc9a760e01b6001600160e01b03198316145b92915050565b60008651116104205760405162461bcd60e51b81526020600482015260146024820152734e616d652063616e6e6f7420626520656d70747960601b60448201526064015b60405180910390fd5b600085511161046c5760405162461bcd60e51b815260206004820152601860248201527746756c6c6e616d652063616e6e6f7420626520656d70747960401b6044820152606401610417565b60008351116104bd5760405162461bcd60e51b815260206004820152601b60248201527f4465736372697074696f6e2063616e6e6f7420626520656d70747900000000006044820152606401610417565b60008451116105085760405162461bcd60e51b815260206004820152601760248201527650726f66696c652063616e6e6f7420626520656d70747960481b6044820152606401610417565b60008251116105515760405162461bcd60e51b8152602060048201526015602482015274496d6167652063616e6e6f7420626520656d70747960581b6044820152606401610417565b600081116105995760405162461bcd60e51b8152602060048201526015602482015274416d6f756e742063616e6e6f74206265207a65726f60581b6044820152606401610417565b6105a7600280546001019055565b6105af61243c565b600254815233602082015260408101879052606081018690526080810184905260a0810183905260c0810185905260e081018290526105ec612089565b610140820152805160009081526006602090815260409182902083518155908301516001820180546001600160a01b0319166001600160a01b039092169190911790559082015182919060028201906106459082612b9b565b506060820151600382019061065a9082612b9b565b506080820151600482019061066f9082612b9b565b5060a082015160058201906106849082612b9b565b5060c082015160068201906106999082612b9b565b5060e08201516007820155610100808301516008808401919091556101208401516009840155610140840151600a840155610160840151600b90930180546101809095015161ffff1990951693151561ff001916939093179315159091029290921790559051600090815260209190915260409020805460ff19166001179055505050505050565b6000828152600160208190526040909120015461073d816120a8565b61074783836120b2565b505050565b6001600160a01b03811633146107bc5760405162461bcd60e51b815260206004820152602f60248201527f416363657373436f6e74726f6c3a2063616e206f6e6c792072656e6f756e636560448201526e103937b632b9903337b91039b2b63360891b6064820152608401610417565b6107c6828261211d565b5050565b6107d2612184565b6000811180156107e3575060648111155b61082f5760405162461bcd60e51b815260206004820152601f60248201527f50657263656e74206d757374206265206265747765656e2030202d20313030006044820152606401610417565b600455565b6060600060015b60025481116108c4576000818152600660205260409020600b015460ff1615801561087d57506000818152600660205260409020600b0154610100900460ff16155b801561089f575060008181526006602052604090206007810154600990910154105b156108b257816108ae81612c71565b9250505b806108bc81612c71565b91505061083b565b508067ffffffffffffffff8111156108de576108de6124db565b60405190808252806020026020018201604052801561091757816020015b61090461243c565b8152602001906001900390816108fc5790505b509150600060015b6002548111610d20576000818152600660205260409020600b015460ff1615801561096157506000818152600660205260409020600b0154610100900460ff16155b8015610983575060008181526006602052604090206007810154600990910154105b15610d0e5760008181526006602090815260409182902082516101a0810184528154815260018201546001600160a01b03169281019290925260028101805492939192918401916109d390612b13565b80601f01602080910402602001604051908101604052809291908181526020018280546109ff90612b13565b8015610a4c5780601f10610a2157610100808354040283529160200191610a4c565b820191906000526020600020905b815481529060010190602001808311610a2f57829003601f168201915b50505050508152602001600382018054610a6590612b13565b80601f0160208091040260200160405190810160405280929190818152602001828054610a9190612b13565b8015610ade5780601f10610ab357610100808354040283529160200191610ade565b820191906000526020600020905b815481529060010190602001808311610ac157829003601f168201915b50505050508152602001600482018054610af790612b13565b80601f0160208091040260200160405190810160405280929190818152602001828054610b2390612b13565b8015610b705780601f10610b4557610100808354040283529160200191610b70565b820191906000526020600020905b815481529060010190602001808311610b5357829003601f168201915b50505050508152602001600582018054610b8990612b13565b80601f0160208091040260200160405190810160405280929190818152602001828054610bb590612b13565b8015610c025780601f10610bd757610100808354040283529160200191610c02565b820191906000526020600020905b815481529060010190602001808311610be557829003601f168201915b50505050508152602001600682018054610c1b90612b13565b80601f0160208091040260200160405190810160405280929190818152602001828054610c4790612b13565b8015610c945780601f10610c6957610100808354040283529160200191610c94565b820191906000526020600020905b815481529060010190602001808311610c7757829003601f168201915b5050509183525050600782015460208201526008820154604082015260098201546060820152600a8201546080820152600b9091015460ff808216151560a084015261010090910416151560c0909101528483610cf081612c71565b945081518110610d0257610d02612c8a565b60200260200101819052505b80610d1881612c71565b91505061091f565b50505090565b6060600060015b6002548111610db8576000818152600660205260409020600b015460ff16158015610d6e575060008181526006602052604090206007810154600990910154105b8015610d9357506000818152600660205260409020600101546001600160a01b031633145b15610da65781610da281612c71565b9250505b80610db081612c71565b915050610d2d565b508067ffffffffffffffff811115610dd257610dd26124db565b604051908082528060200260200182016040528015610e0b57816020015b610df861243c565b815260200190600190039081610df05790505b509150600060015b6002548111610d20576000818152600660205260409020600b015460ff16158015610e54575060008181526006602052604090206007810154600990910154105b8015610e7957506000818152600660205260409020600101546001600160a01b031633145b156112045760008181526006602090815260409182902082516101a0810184528154815260018201546001600160a01b0316928101929092526002810180549293919291840191610ec990612b13565b80601f0160208091040260200160405190810160405280929190818152602001828054610ef590612b13565b8015610f425780601f10610f1757610100808354040283529160200191610f42565b820191906000526020600020905b815481529060010190602001808311610f2557829003601f168201915b50505050508152602001600382018054610f5b90612b13565b80601f0160208091040260200160405190810160405280929190818152602001828054610f8790612b13565b8015610fd45780601f10610fa957610100808354040283529160200191610fd4565b820191906000526020600020905b815481529060010190602001808311610fb757829003601f168201915b50505050508152602001600482018054610fed90612b13565b80601f016020809104026020016040519081016040528092919081815260200182805461101990612b13565b80156110665780601f1061103b57610100808354040283529160200191611066565b820191906000526020600020905b81548152906001019060200180831161104957829003601f168201915b5050505050815260200160058201805461107f90612b13565b80601f01602080910402602001604051908101604052809291908181526020018280546110ab90612b13565b80156110f85780601f106110cd576101008083540402835291602001916110f8565b820191906000526020600020905b8154815290600101906020018083116110db57829003601f168201915b5050505050815260200160068201805461111190612b13565b80601f016020809104026020016040519081016040528092919081815260200182805461113d90612b13565b801561118a5780601f1061115f5761010080835404028352916020019161118a565b820191906000526020600020905b81548152906001019060200180831161116d57829003601f168201915b5050509183525050600782015460208201526008820154604082015260098201546060820152600a8201546080820152600b9091015460ff808216151560a084015261010090910416151560c09091015284836111e681612c71565b9450815181106111f8576111f8612c8a565b60200260200101819052505b8061120e81612c71565b915050610e13565b61121e612184565b61122860006121de565b565b6005546040516323b872dd60e01b81526001600160a01b03858116600483015284811660248301526044820184905260009216906323b872dd906064016020604051808303816000875af1158015611286573d6000803e3d6000fd5b505050506040513d601f19601f820116820180604052508101906112aa9190612ca0565b6112ec5760405162461bcd60e51b8152602060048201526013602482015272151c985b9cd9995c919c9bdb4819985a5b1959606a1b6044820152606401610417565b5060019392505050565b60009182526001602090815260408084206001600160a01b0393909316845291905290205460ff1690565b606060076000838152602001908152602001600020805480602002602001604051908101604052809291908181526020016000905b828210156114ea57838290600052602060002090600702016040518060e0016040529081600082015481526020016001820154815260200160028201805461139d90612b13565b80601f01602080910402602001604051908101604052809291908181526020018280546113c990612b13565b80156114165780601f106113eb57610100808354040283529160200191611416565b820191906000526020600020905b8154815290600101906020018083116113f957829003601f168201915b50505050508152602001600382015481526020016004820154815260200160058201805461144390612b13565b80601f016020809104026020016040519081016040528092919081815260200182805461146f90612b13565b80156114bc5780601f10611491576101008083540402835291602001916114bc565b820191906000526020600020905b81548152906001019060200180831161149f57829003601f168201915b5050509183525050600691909101546001600160a01b03166020918201529082526001929092019101611356565b505050509050919050565b60008481526008602052604090205460ff166115235760405162461bcd60e51b815260040161041790612cc2565b6000848152600660205260409020600b0154610100900460ff161561158a5760405162461bcd60e51b815260206004820152601d60248201527f436861726974792042616e6e65642c20636f6e746163742061646d696e0000006044820152606401610417565b60008481526006602052604090206007810154600990910154106115f05760405162461bcd60e51b815260206004820152601860248201527f43686172697479206275646765742066756c66696c6c656400000000000000006044820152606401610417565b6115fe600380546001019055565b60006064600454836116109190612ced565b61161a9190612d04565b905060006116288284612d26565b90506116736040518060e0016040528060008152602001600081526020016060815260200160008152602001600081526020016060815260200160006001600160a01b031681525090565b600354815260208101879052604081018690523360c08201526060810184905260a081018590526116a2612089565b6080820152600087815260076020818152604080842080546001818101835591865294839020865195909402909301938455908401519183019190915582015182919060028201906116f49082612b9b565b50606082015160038201556080820151600482015560a0820151600582019061171d9082612b9b565b5060c09190910151600691820180546001600160a01b0319166001600160a01b039092169190911790556000888152602091909152604081206009018054869290611769908490612d39565b90915550506000878152600660205260408120600801805460019290611790908490612d39565b90915550506000878152600660205260409020600101546117bc9033906001600160a01b03168461122a565b506117c833308561122a565b5050505050505050565b6117da612184565b60008181526008602052604090205460ff166118085760405162461bcd60e51b815260040161041790612cc2565b6000908152600660205260409020600b01805461ff001981166101009182900460ff1615909102179055565b60055460405163a9059cbb60e01b81526001600160a01b03848116600483015260248201849052600092169063a9059cbb906044016020604051808303816000875af1158015611888573d6000803e3d6000fd5b505050506040513d601f19601f820116820180604052508101906118ac9190612ca0565b6118ea5760405162461bcd60e51b815260206004820152600f60248201526e151c985b9cd9995c8819985a5b1959608a1b6044820152606401610417565b50600192915050565b60008181526008602052604090205460ff166119215760405162461bcd60e51b815260040161041790612cc2565b6000818152600660205260409020600101546001600160a01b031633146119805760405162461bcd60e51b8152602060048201526013602482015272556e617574686f72697a656420456e7469747960681b6044820152606401610417565b6000908152600660205260409020600b01805460ff19166001179055565b600082815260016020819052604090912001546119ba816120a8565b610747838361211d565b60008781526008602052604090205460ff166119f25760405162461bcd60e51b815260040161041790612cc2565b6000878152600660205260409020600101546001600160a01b03163314611a515760405162461bcd60e51b8152602060048201526013602482015272556e617574686f72697a656420456e7469747960681b6044820152606401610417565b6000865111611a995760405162461bcd60e51b81526020600482015260146024820152734e616d652063616e6e6f7420626520656d70747960601b6044820152606401610417565b6000855111611ae55760405162461bcd60e51b815260206004820152601860248201527746756c6c6e616d652063616e6e6f7420626520656d70747960401b6044820152606401610417565b6000835111611b365760405162461bcd60e51b815260206004820152601b60248201527f4465736372697074696f6e2063616e6e6f7420626520656d70747900000000006044820152606401610417565b6000845111611b815760405162461bcd60e51b815260206004820152601760248201527650726f66696c652063616e6e6f7420626520656d70747960481b6044820152606401610417565b6000825111611bca5760405162461bcd60e51b8152602060048201526015602482015274496d6167652063616e6e6f7420626520656d70747960581b6044820152606401610417565b60008111611c125760405162461bcd60e51b8152602060048201526015602482015274416d6f756e742063616e6e6f74206265207a65726f60581b6044820152606401610417565b6000878152600660205260409020600201611c2d8782612b9b565b506000878152600660205260409020600301611c498682612b9b565b506000878152600660205260409020600501611c658382612b9b565b5060008781526006602081905260409091206007810183905501611c898582612b9b565b5060008781526006602052604090206004016117c88482612b9b565b611cad612184565b6001600160a01b038116611d125760405162461bcd60e51b815260206004820152602660248201527f4f776e61626c653a206e6577206f776e657220697320746865207a65726f206160448201526564647265737360d01b6064820152608401610417565b611d1b816121de565b50565b611d2661243c565b60008281526006602090815260409182902082516101a0810184528154815260018201546001600160a01b0316928101929092526002810180549293919291840191611d7190612b13565b80601f0160208091040260200160405190810160405280929190818152602001828054611d9d90612b13565b8015611dea5780601f10611dbf57610100808354040283529160200191611dea565b820191906000526020600020905b815481529060010190602001808311611dcd57829003601f168201915b50505050508152602001600382018054611e0390612b13565b80601f0160208091040260200160405190810160405280929190818152602001828054611e2f90612b13565b8015611e7c5780601f10611e5157610100808354040283529160200191611e7c565b820191906000526020600020905b815481529060010190602001808311611e5f57829003601f168201915b50505050508152602001600482018054611e9590612b13565b80601f0160208091040260200160405190810160405280929190818152602001828054611ec190612b13565b8015611f0e5780601f10611ee357610100808354040283529160200191611f0e565b820191906000526020600020905b815481529060010190602001808311611ef157829003601f168201915b50505050508152602001600582018054611f2790612b13565b80601f0160208091040260200160405190810160405280929190818152602001828054611f5390612b13565b8015611fa05780601f10611f7557610100808354040283529160200191611fa0565b820191906000526020600020905b815481529060010190602001808311611f8357829003601f168201915b50505050508152602001600682018054611fb990612b13565b80601f0160208091040260200160405190810160405280929190818152602001828054611fe590612b13565b80156120325780601f1061200757610100808354040283529160200191612032565b820191906000526020600020905b81548152906001019060200180831161201557829003601f168201915b5050509183525050600782015460208201526008820154604082015260098201546060820152600a8201546080820152600b9091015460ff808216151560a084015261010090910416151560c09091015292915050565b6000612097426103e8612ced565b6120a3906103e8612d39565b905090565b611d1b813361222e565b6120bc82826112f6565b6107c65760008281526001602081815260408084206001600160a01b0386168086529252808420805460ff19169093179092559051339285917f2f8788117e7eff1d82e926ec794901d17c78024a50270940304540a733656f0d9190a45050565b61212782826112f6565b156107c65760008281526001602090815260408083206001600160a01b0385168085529252808320805460ff1916905551339285917ff6391f5c32d9c69d2a47ea670b442974b53935d1edc7fd64eb21e047a839171b9190a45050565b6000546001600160a01b031633146112285760405162461bcd60e51b815260206004820181905260248201527f4f776e61626c653a2063616c6c6572206973206e6f7420746865206f776e65726044820152606401610417565b600080546001600160a01b038381166001600160a01b0319831681178455604051919092169283917f8be0079c531659141344cd1fd0a4f28419497f9722a3daafe3b4186f6b6457e09190a35050565b61223882826112f6565b6107c65761224581612287565b612250836020612299565b604051602001612261929190612d4c565b60408051601f198184030181529082905262461bcd60e51b825261041791600401612dc1565b60606103cd6001600160a01b03831660145b606060006122a8836002612ced565b6122b3906002612d39565b67ffffffffffffffff8111156122cb576122cb6124db565b6040519080825280601f01601f1916602001820160405280156122f5576020820181803683370190505b509050600360fc1b8160008151811061231057612310612c8a565b60200101906001600160f81b031916908160001a905350600f60fb1b8160018151811061233f5761233f612c8a565b60200101906001600160f81b031916908160001a9053506000612363846002612ced565b61236e906001612d39565b90505b60018111156123e6576f181899199a1a9b1b9c1cb0b131b232b360811b85600f16601081106123a2576123a2612c8a565b1a60f81b8282815181106123b8576123b8612c8a565b60200101906001600160f81b031916908160001a90535060049490941c936123df81612dd4565b9050612371565b5083156124355760405162461bcd60e51b815260206004820181905260248201527f537472696e67733a20686578206c656e67746820696e73756666696369656e746044820152606401610417565b9392505050565b604051806101a001604052806000815260200160006001600160a01b031681526020016060815260200160608152602001606081526020016060815260200160608152602001600081526020016000815260200160008152602001600081526020016000151581526020016000151581525090565b6000602082840312156124c357600080fd5b81356001600160e01b03198116811461243557600080fd5b634e487b7160e01b600052604160045260246000fd5b600082601f83011261250257600080fd5b813567ffffffffffffffff8082111561251d5761251d6124db565b604051601f8301601f19908116603f01168101908282118183101715612545576125456124db565b8160405283815286602085880101111561255e57600080fd5b836020870160208301376000602085830101528094505050505092915050565b60008060008060008060c0878903121561259757600080fd5b863567ffffffffffffffff808211156125af57600080fd5b6125bb8a838b016124f1565b975060208901359150808211156125d157600080fd5b6125dd8a838b016124f1565b965060408901359150808211156125f357600080fd5b6125ff8a838b016124f1565b9550606089013591508082111561261557600080fd5b6126218a838b016124f1565b9450608089013591508082111561263757600080fd5b5061264489828a016124f1565b92505060a087013590509295509295509295565b60006020828403121561266a57600080fd5b5035919050565b80356001600160a01b038116811461268857600080fd5b919050565b600080604083850312156126a057600080fd5b823591506126b060208401612671565b90509250929050565b60005b838110156126d45781810151838201526020016126bc565b50506000910152565b600081518084526126f58160208601602086016126b9565b601f01601f19169290920160200192915050565b60006101a082518452602083015161272c60208601826001600160a01b03169052565b506040830151816040860152612744828601826126dd565b9150506060830151848203606086015261275e82826126dd565b9150506080830151848203608086015261277882826126dd565b91505060a083015184820360a086015261279282826126dd565b91505060c083015184820360c08601526127ac82826126dd565b60e08581015190870152610100808601519087015261012080860151908701526101408086015190870152610160808601511515908701526101809485015115159490950193909352509192915050565b6000602080830181845280855180835260408601915060408160051b870101925083870160005b8281101561285257603f19888603018452612840858351612709565b94509285019290850190600101612824565b5092979650505050505050565b60008060006060848603121561287457600080fd5b61287d84612671565b925061288b60208501612671565b9150604084013590509250925092565b60006020808301818452808551808352604092508286019150828160051b87010184880160005b8381101561295357603f19898403018552815160e08151855288820151898601528782015181898701526128f8828701826126dd565b9150506060808301518187015250608080830151818701525060a0808301518683038288015261292883826126dd565b60c0948501516001600160a01b031697909401969096525050948701949250908601906001016128c2565b509098975050505050505050565b6000806000806080858703121561297757600080fd5b84359350602085013567ffffffffffffffff8082111561299657600080fd5b6129a2888389016124f1565b945060408701359150808211156129b857600080fd5b506129c5878288016124f1565b949793965093946060013593505050565b600080604083850312156129e957600080fd5b6129f283612671565b946020939093013593505050565b600080600080600080600060e0888a031215612a1b57600080fd5b87359650602088013567ffffffffffffffff80821115612a3a57600080fd5b612a468b838c016124f1565b975060408a0135915080821115612a5c57600080fd5b612a688b838c016124f1565b965060608a0135915080821115612a7e57600080fd5b612a8a8b838c016124f1565b955060808a0135915080821115612aa057600080fd5b612aac8b838c016124f1565b945060a08a0135915080821115612ac257600080fd5b50612acf8a828b016124f1565b92505060c0880135905092959891949750929550565b600060208284031215612af757600080fd5b61243582612671565b6020815260006124356020830184612709565b600181811c90821680612b2757607f821691505b602082108103612b4757634e487b7160e01b600052602260045260246000fd5b50919050565b601f82111561074757600081815260208120601f850160051c81016020861015612b745750805b601f850160051c820191505b81811015612b9357828155600101612b80565b505050505050565b815167ffffffffffffffff811115612bb557612bb56124db565b612bc981612bc38454612b13565b84612b4d565b602080601f831160018114612bfe5760008415612be65750858301515b600019600386901b1c1916600185901b178555612b93565b600085815260208120601f198616915b82811015612c2d57888601518255948401946001909101908401612c0e565b5085821015612c4b5787850151600019600388901b60f8161c191681555b5050505050600190811b01905550565b634e487b7160e01b600052601160045260246000fd5b600060018201612c8357612c83612c5b565b5060010190565b634e487b7160e01b600052603260045260246000fd5b600060208284031215612cb257600080fd5b8151801515811461243557600080fd5b60208082526011908201527010da185c9a5d1e48139bdd08119bdd5b99607a1b604082015260600190565b80820281158282048414176103cd576103cd612c5b565b600082612d2157634e487b7160e01b600052601260045260246000fd5b500490565b818103818111156103cd576103cd612c5b565b808201808211156103cd576103cd612c5b565b7f416363657373436f6e74726f6c3a206163636f756e7420000000000000000000815260008351612d848160178501602088016126b9565b7001034b99036b4b9b9b4b733903937b6329607d1b6017918401918201528351612db58160288401602088016126b9565b01602801949350505050565b60208152600061243560208301846126dd565b600081612de357612de3612c5b565b50600019019056fea2646970667358221220529f9b8dc555c9a58859977103d82db0c5edfc3c2e1fda5b0621b8eb01de584a64736f6c63430008110033",
  "linkReferences": {},
  "deployedLinkReferences": {}
}