{
  "_format": "hh-sol-artifact-1",
  "contractName": "DappFund",
  "sourceName": "contracts/DappFund.sol",
  "abi": [
    {
      "inputs": [
        {
          "internalType": "uint256",
          "name": "_charityTax",
          "type": "uint256"
        }
      ],
      "stateMutability": "nonpayable",
      "type": "constructor"
    },
    {
      "anonymous": false,
      "inputs": [
        {
          "indexed": true,
          "internalType": "address",
          "name": "previousOwner",
          "type": "address"
        },
        {
          "indexed": true,
          "internalType": "address",
          "name": "newOwner",
          "type": "address"
        }
      ],
      "name": "OwnershipTransferred",
      "type": "event"
    },
    {
      "anonymous": false,
      "inputs": [
        {
          "indexed": true,
          "internalType": "bytes32",
          "name": "role",
          "type": "bytes32"
        },
        {
          "indexed": true,
          "internalType": "bytes32",
          "name": "previousAdminRole",
          "type": "bytes32"
        },
        {
          "indexed": true,
          "internalType": "bytes32",
          "name": "newAdminRole",
          "type": "bytes32"
        }
      ],
      "name": "RoleAdminChanged",
      "type": "event"
    },
    {
      "anonymous": false,
      "inputs": [
        {
          "indexed": true,
          "internalType": "bytes32",
          "name": "role",
          "type": "bytes32"
        },
        {
          "indexed": true,
          "internalType": "address",
          "name": "account",
          "type": "address"
        },
        {
          "indexed": true,
          "internalType": "address",
          "name": "sender",
          "type": "address"
        }
      ],
      "name": "RoleGranted",
      "type": "event"
    },
    {
      "anonymous": false,
      "inputs": [
        {
          "indexed": true,
          "internalType": "bytes32",
          "name": "role",
          "type": "bytes32"
        },
        {
          "indexed": true,
          "internalType": "address",
          "name": "account",
          "type": "address"
        },
        {
          "indexed": true,
          "internalType": "address",
          "name": "sender",
          "type": "address"
        }
      ],
      "name": "RoleRevoked",
      "type": "event"
    },
    {
      "inputs": [],
      "name": "DEFAULT_ADMIN_ROLE",
      "outputs": [
        {
          "internalType": "bytes32",
          "name": "",
          "type": "bytes32"
        }
      ],
      "stateMutability": "view",
      "type": "function"
    },
    {
      "inputs": [],
      "name": "USDe",
      "outputs": [
        {
          "internalType": "contract IERC20",
          "name": "",
          "type": "address"
        }
      ],
      "stateMutability": "view",
      "type": "function"
    },
    {
      "inputs": [
        {
          "internalType": "uint256",
          "name": "_taxPct",
          "type": "uint256"
        }
      ],
      "name": "changeTax",
      "outputs": [],
      "stateMutability": "nonpayable",
      "type": "function"
    },
    {
      "inputs": [
        {
          "internalType": "uint256",
          "name": "",
          "type": "uint256"
        }
      ],
      "name": "charityExist",
      "outputs": [
        {
          "internalType": "bool",
          "name": "",
          "type": "bool"
        }
      ],
      "stateMutability": "view",
      "type": "function"
    },
    {
      "inputs": [],
      "name": "charityTax",
      "outputs": [
        {
          "internalType": "uint256",
          "name": "",
          "type": "uint256"
        }
      ],
      "stateMutability": "view",
      "type": "function"
    },
    {
      "inputs": [
        {
          "internalType": "string",
          "name": "name",
          "type": "string"
        },
        {
          "internalType": "string",
          "name": "fullname",
          "type": "string"
        },
        {
          "internalType": "string",
          "name": "profile",
          "type": "string"
        },
        {
          "internalType": "string",
          "name": "description",
          "type": "string"
        },
        {
          "internalType": "string",
          "name": "image",
          "type": "string"
        },
        {
          "internalType": "uint256",
          "name": "amount",
          "type": "uint256"
        }
      ],
      "name": "createCharity",
      "outputs": [],
      "stateMutability": "nonpayable",
      "type": "function"
    },
    {
      "inputs": [
        {
          "internalType": "uint256",
          "name": "id",
          "type": "uint256"
        }
      ],
      "name": "deleteCharity",
      "outputs": [],
      "stateMutability": "nonpayable",
      "type": "function"
    },
    {
      "inputs": [
        {
          "internalType": "uint256",
          "name": "id",
          "type": "uint256"
        },
        {
          "internalType": "string",
          "name": "fullname",
          "type": "string"
        },
        {
          "internalType": "string",
          "name": "comment",
          "type": "string"
        }
      ],
      "name": "donate",
      "outputs": [],
      "stateMutability": "payable",
      "type": "function"
    },
    {
      "inputs": [],
      "name": "getCharities",
      "outputs": [
        {
          "components": [
            {
              "internalType": "uint256",
              "name": "id",
              "type": "uint256"
            },
            {
              "internalType": "address",
              "name": "owner",
              "type": "address"
            },
            {
              "internalType": "string",
              "name": "name",
              "type": "string"
            },
            {
              "internalType": "string",
              "name": "fullname",
              "type": "string"
            },
            {
              "internalType": "string",
              "name": "description",
              "type": "string"
            },
            {
              "internalType": "string",
              "name": "image",
              "type": "string"
            },
            {
              "internalType": "string",
              "name": "profile",
              "type": "string"
            },
            {
              "internalType": "uint256",
              "name": "amount",
              "type": "uint256"
            },
            {
              "internalType": "uint256",
              "name": "donations",
              "type": "uint256"
            },
            {
              "internalType": "uint256",
              "name": "raised",
              "type": "uint256"
            },
            {
              "internalType": "uint256",
              "name": "timestamp",
              "type": "uint256"
            },
            {
              "internalType": "bool",
              "name": "deleted",
              "type": "bool"
            },
            {
              "internalType": "bool",
              "name": "banned",
              "type": "bool"
            }
          ],
          "internalType": "struct DappFund.CharityStruct[]",
          "name": "Charities",
          "type": "tuple[]"
        }
      ],
      "stateMutability": "view",
      "type": "function"
    },
    {
      "inputs": [
        {
          "internalType": "uint256",
          "name": "id",
          "type": "uint256"
        }
      ],
      "name": "getCharity",
      "outputs": [
        {
          "components": [
            {
              "internalType": "uint256",
              "name": "id",
              "type": "uint256"
            },
            {
              "internalType": "address",
              "name": "owner",
              "type": "address"
            },
            {
              "internalType": "string",
              "name": "name",
              "type": "string"
            },
            {
              "internalType": "string",
              "name": "fullname",
              "type": "string"
            },
            {
              "internalType": "string",
              "name": "description",
              "type": "string"
            },
            {
              "internalType": "string",
              "name": "image",
              "type": "string"
            },
            {
              "internalType": "string",
              "name": "profile",
              "type": "string"
            },
            {
              "internalType": "uint256",
              "name": "amount",
              "type": "uint256"
            },
            {
              "internalType": "uint256",
              "name": "donations",
              "type": "uint256"
            },
            {
              "internalType": "uint256",
              "name": "raised",
              "type": "uint256"
            },
            {
              "internalType": "uint256",
              "name": "timestamp",
              "type": "uint256"
            },
            {
              "internalType": "bool",
              "name": "deleted",
              "type": "bool"
            },
            {
              "internalType": "bool",
              "name": "banned",
              "type": "bool"
            }
          ],
          "internalType": "struct DappFund.CharityStruct",
          "name": "",
          "type": "tuple"
        }
      ],
      "stateMutability": "view",
      "type": "function"
    },
    {
      "inputs": [],
      "name": "getMyCharities",
      "outputs": [
        {
          "components": [
            {
              "internalType": "uint256",
              "name": "id",
              "type": "uint256"
            },
            {
              "internalType": "address",
              "name": "owner",
              "type": "address"
            },
            {
              "internalType": "string",
              "name": "name",
              "type": "string"
            },
            {
              "internalType": "string",
              "name": "fullname",
              "type": "string"
            },
            {
              "internalType": "string",
              "name": "description",
              "type": "string"
            },
            {
              "internalType": "string",
              "name": "image",
              "type": "string"
            },
            {
              "internalType": "string",
              "name": "profile",
              "type": "string"
            },
            {
              "internalType": "uint256",
              "name": "amount",
              "type": "uint256"
            },
            {
              "internalType": "uint256",
              "name": "donations",
              "type": "uint256"
            },
            {
              "internalType": "uint256",
              "name": "raised",
              "type": "uint256"
            },
            {
              "internalType": "uint256",
              "name": "timestamp",
              "type": "uint256"
            },
            {
              "internalType": "bool",
              "name": "deleted",
              "type": "bool"
            },
            {
              "internalType": "bool",
              "name": "banned",
              "type": "bool"
            }
          ],
          "internalType": "struct DappFund.CharityStruct[]",
          "name": "Charities",
          "type": "tuple[]"
        }
      ],
      "stateMutability": "view",
      "type": "function"
    },
    {
      "inputs": [
        {
          "internalType": "bytes32",
          "name": "role",
          "type": "bytes32"
        }
      ],
      "name": "getRoleAdmin",
      "outputs": [
        {
          "internalType": "bytes32",
          "name": "",
          "type": "bytes32"
        }
      ],
      "stateMutability": "view",
      "type": "function"
    },
    {
      "inputs": [
        {
          "internalType": "uint256",
          "name": "id",
          "type": "uint256"
        }
      ],
      "name": "getSupports",
      "outputs": [
        {
          "components": [
            {
              "internalType": "uint256",
              "name": "id",
              "type": "uint256"
            },
            {
              "internalType": "uint256",
              "name": "cid",
              "type": "uint256"
            },
            {
              "internalType": "string",
              "name": "fullname",
              "type": "string"
            },
            {
              "internalType": "uint256",
              "name": "amount",
              "type": "uint256"
            },
            {
              "internalType": "uint256",
              "name": "timestamp",
              "type": "uint256"
            },
            {
              "internalType": "string",
              "name": "comment",
              "type": "string"
            },
            {
              "internalType": "address",
              "name": "supporter",
              "type": "address"
            }
          ],
          "internalType": "struct DappFund.SupportStruct[]",
          "name": "",
          "type": "tuple[]"
        }
      ],
      "stateMutability": "view",
      "type": "function"
    },
    {
      "inputs": [
        {
          "internalType": "bytes32",
          "name": "role",
          "type": "bytes32"
        },
        {
          "internalType": "address",
          "name": "account",
          "type": "address"
        }
      ],
      "name": "grantRole",
      "outputs": [],
      "stateMutability": "nonpayable",
      "type": "function"
    },
    {
      "inputs": [
        {
          "internalType": "bytes32",
          "name": "role",
          "type": "bytes32"
        },
        {
          "internalType": "address",
          "name": "account",
          "type": "address"
        }
      ],
      "name": "hasRole",
      "outputs": [
        {
          "internalType": "bool",
          "name": "",
          "type": "bool"
        }
      ],
      "stateMutability": "view",
      "type": "function"
    },
    {
      "inputs": [],
      "name": "owner",
      "outputs": [
        {
          "internalType": "address",
          "name": "",
          "type": "address"
        }
      ],
      "stateMutability": "view",
      "type": "function"
    },
    {
      "inputs": [],
      "name": "renounceOwnership",
      "outputs": [],
      "stateMutability": "nonpayable",
      "type": "function"
    },
    {
      "inputs": [
        {
          "internalType": "bytes32",
          "name": "role",
          "type": "bytes32"
        },
        {
          "internalType": "address",
          "name": "account",
          "type": "address"
        }
      ],
      "name": "renounceRole",
      "outputs": [],
      "stateMutability": "nonpayable",
      "type": "function"
    },
    {
      "inputs": [
        {
          "internalType": "bytes32",
          "name": "role",
          "type": "bytes32"
        },
        {
          "internalType": "address",
          "name": "account",
          "type": "address"
        }
      ],
      "name": "revokeRole",
      "outputs": [],
      "stateMutability": "nonpayable",
      "type": "function"
    },
    {
      "inputs": [
        {
          "internalType": "bytes4",
          "name": "interfaceId",
          "type": "bytes4"
        }
      ],
      "name": "supportsInterface",
      "outputs": [
        {
          "internalType": "bool",
          "name": "",
          "type": "bool"
        }
      ],
      "stateMutability": "view",
      "type": "function"
    },
    {
      "inputs": [
        {
          "internalType": "uint256",
          "name": "id",
          "type": "uint256"
        }
      ],
      "name": "toggleBan",
      "outputs": [],
      "stateMutability": "nonpayable",
      "type": "function"
    },
    {
      "inputs": [
        {
          "internalType": "address",
          "name": "newOwner",
          "type": "address"
        }
      ],
      "name": "transferOwnership",
      "outputs": [],
      "stateMutability": "nonpayable",
      "type": "function"
    },
    {
      "inputs": [
        {
          "internalType": "address",
          "name": "recipient",
          "type": "address"
        },
        {
          "internalType": "uint256",
          "name": "amount",
          "type": "uint256"
        }
      ],
      "name": "transferUSDe",
      "outputs": [
        {
          "internalType": "bool",
          "name": "",
          "type": "bool"
        }
      ],
      "stateMutability": "nonpayable",
      "type": "function"
    },
    {
      "inputs": [
        {
          "internalType": "uint256",
          "name": "id",
          "type": "uint256"
        },
        {
          "internalType": "string",
          "name": "name",
          "type": "string"
        },
        {
          "internalType": "string",
          "name": "fullname",
          "type": "string"
        },
        {
          "internalType": "string",
          "name": "profile",
          "type": "string"
        },
        {
          "internalType": "string",
          "name": "description",
          "type": "string"
        },
        {
          "internalType": "string",
          "name": "image",
          "type": "string"
        },
        {
          "internalType": "uint256",
          "name": "amount",
          "type": "uint256"
        }
      ],
      "name": "updateCharity",
      "outputs": [],
      "stateMutability": "nonpayable",
      "type": "function"
    }
  ],
  "bytecode": "0x60806040523480156200001157600080fd5b5060405162003007380380620030078339810160408190526200003491620000be565b6200003f336200006e565b600580546001600160a01b03191673426e7d03f9803dd11cb8616c65b99a3c0afea6de179055600455620000d8565b600080546001600160a01b038381166001600160a01b0319831681178455604051919092169283917f8be0079c531659141344cd1fd0a4f28419497f9722a3daafe3b4186f6b6457e09190a35050565b600060208284031215620000d157600080fd5b5051919050565b612f1f80620000e86000396000f3fe60806040526004361061014b5760003560e01c806395024734116100b6578063d16095021161006f578063d1609502146103cc578063d547741f146103ec578063ed5724711461040c578063f2ccf8391461042c578063f2fde38b1461043f578063fd67db811461045f57600080fd5b806395024734146102fa578063a217fddf14610327578063ac3238c11461033c578063b1a1b5591461035c578063b48c06dd1461037c578063cdb532b9146103ac57600080fd5b80633e45c8af116101085780633e45c8af1461023c57806348112c6f1461025c578063586619291461027e578063715018a6146102935780638da5cb5b146102a857806391d14854146102da57600080fd5b806301ffc9a714610150578063063165a314610185578063248a9ca3146101a75780632f2ff15d146101e657806336568abe146102065780633d78478314610226575b600080fd5b34801561015c57600080fd5b5061017061016b3660046125da565b61048c565b60405190151581526020015b60405180910390f35b34801561019157600080fd5b506101a56101a03660046126a7565b6104c3565b005b3480156101b357600080fd5b506101d86101c2366004612781565b6000908152600160208190526040909120015490565b60405190815260200161017c565b3480156101f257600080fd5b506101a56102013660046127b6565b610811565b34801561021257600080fd5b506101a56102213660046127b6565b61083c565b34801561023257600080fd5b506101d860045481565b34801561024857600080fd5b506101a5610257366004612781565b6108ba565b34801561026857600080fd5b50610271610924565b60405161017c9190612926565b34801561028a57600080fd5b50610271610e16565b34801561029f57600080fd5b506101a5611306565b3480156102b457600080fd5b506000546001600160a01b03165b6040516001600160a01b03909116815260200161017c565b3480156102e657600080fd5b506101706102f53660046127b6565b61131a565b34801561030657600080fd5b5061031a610315366004612781565b611345565b60405161017c9190612988565b34801561033357600080fd5b506101d8600081565b34801561034857600080fd5b506101a5610357366004612781565b611519565b34801561036857600080fd5b50610170610377366004612a4e565b61157b565b34801561038857600080fd5b50610170610397366004612781565b60086020526000908152604090205460ff1681565b3480156103b857600080fd5b506101a56103c7366004612781565b61163a565b3480156103d857600080fd5b506005546102c2906001600160a01b031681565b3480156103f857600080fd5b506101a56104073660046127b6565b6116e5565b34801561041857600080fd5b506101a5610427366004612a78565b61170b565b6101a561043a366004612b5d565b6119f6565b34801561044b57600080fd5b506101a561045a366004612bca565b611dce565b34801561046b57600080fd5b5061047f61047a366004612781565b611e47565b60405161017c9190612be5565b60006001600160e01b03198216637965db0b60e01b14806104bd57506301ffc9a760e01b6001600160e01b03198316145b92915050565b60008651116105105760405162461bcd60e51b81526020600482015260146024820152734e616d652063616e6e6f7420626520656d70747960601b60448201526064015b60405180910390fd5b600085511161055c5760405162461bcd60e51b815260206004820152601860248201527746756c6c6e616d652063616e6e6f7420626520656d70747960401b6044820152606401610507565b60008351116105ad5760405162461bcd60e51b815260206004820152601b60248201527f4465736372697074696f6e2063616e6e6f7420626520656d70747900000000006044820152606401610507565b60008451116105f85760405162461bcd60e51b815260206004820152601760248201527650726f66696c652063616e6e6f7420626520656d70747960481b6044820152606401610507565b60008251116106415760405162461bcd60e51b8152602060048201526015602482015274496d6167652063616e6e6f7420626520656d70747960581b6044820152606401610507565b600081116106895760405162461bcd60e51b8152602060048201526015602482015274416d6f756e742063616e6e6f74206265207a65726f60581b6044820152606401610507565b610697600280546001019055565b61069f612565565b600254815233602082015260408101879052606081018690526080810184905260a0810183905260c0810185905260e081018290526106dc6121b2565b610140820152805160009081526006602090815260409182902083518155908301516001820180546001600160a01b0319166001600160a01b039092169190911790559082015182919060028201906107359082612c80565b506060820151600382019061074a9082612c80565b506080820151600482019061075f9082612c80565b5060a082015160058201906107749082612c80565b5060c082015160068201906107899082612c80565b5060e08201516007820155610100808301516008808401919091556101208401516009840155610140840151600a840155610160840151600b90930180546101809095015161ffff1990951693151561ff001916939093179315159091029290921790559051600090815260209190915260409020805460ff19166001179055505050505050565b6000828152600160208190526040909120015461082d816121d1565b61083783836121db565b505050565b6001600160a01b03811633146108ac5760405162461bcd60e51b815260206004820152602f60248201527f416363657373436f6e74726f6c3a2063616e206f6e6c792072656e6f756e636560448201526e103937b632b9903337b91039b2b63360891b6064820152608401610507565b6108b68282612246565b5050565b6108c26122ad565b6000811180156108d3575060648111155b61091f5760405162461bcd60e51b815260206004820152601f60248201527f50657263656e74206d757374206265206265747765656e2030202d20313030006044820152606401610507565b600455565b6060600060015b60025481116109b4576000818152600660205260409020600b015460ff1615801561096d57506000818152600660205260409020600b0154610100900460ff16155b801561098f575060008181526006602052604090206007810154600990910154105b156109a2578161099e81612d56565b9250505b806109ac81612d56565b91505061092b565b508067ffffffffffffffff8111156109ce576109ce612604565b604051908082528060200260200182016040528015610a0757816020015b6109f4612565565b8152602001906001900390816109ec5790505b509150600060015b6002548111610e10576000818152600660205260409020600b015460ff16158015610a5157506000818152600660205260409020600b0154610100900460ff16155b8015610a73575060008181526006602052604090206007810154600990910154105b15610dfe5760008181526006602090815260409182902082516101a0810184528154815260018201546001600160a01b0316928101929092526002810180549293919291840191610ac390612bf8565b80601f0160208091040260200160405190810160405280929190818152602001828054610aef90612bf8565b8015610b3c5780601f10610b1157610100808354040283529160200191610b3c565b820191906000526020600020905b815481529060010190602001808311610b1f57829003601f168201915b50505050508152602001600382018054610b5590612bf8565b80601f0160208091040260200160405190810160405280929190818152602001828054610b8190612bf8565b8015610bce5780601f10610ba357610100808354040283529160200191610bce565b820191906000526020600020905b815481529060010190602001808311610bb157829003601f168201915b50505050508152602001600482018054610be790612bf8565b80601f0160208091040260200160405190810160405280929190818152602001828054610c1390612bf8565b8015610c605780601f10610c3557610100808354040283529160200191610c60565b820191906000526020600020905b815481529060010190602001808311610c4357829003601f168201915b50505050508152602001600582018054610c7990612bf8565b80601f0160208091040260200160405190810160405280929190818152602001828054610ca590612bf8565b8015610cf25780601f10610cc757610100808354040283529160200191610cf2565b820191906000526020600020905b815481529060010190602001808311610cd557829003601f168201915b50505050508152602001600682018054610d0b90612bf8565b80601f0160208091040260200160405190810160405280929190818152602001828054610d3790612bf8565b8015610d845780601f10610d5957610100808354040283529160200191610d84565b820191906000526020600020905b815481529060010190602001808311610d6757829003601f168201915b5050509183525050600782015460208201526008820154604082015260098201546060820152600a8201546080820152600b9091015460ff808216151560a084015261010090910416151560c0909101528483610de081612d56565b945081518110610df257610df2612d6f565b60200260200101819052505b80610e0881612d56565b915050610a0f565b50505090565b6060600060015b6002548111610ea8576000818152600660205260409020600b015460ff16158015610e5e575060008181526006602052604090206007810154600990910154105b8015610e8357506000818152600660205260409020600101546001600160a01b031633145b15610e965781610e9281612d56565b9250505b80610ea081612d56565b915050610e1d565b508067ffffffffffffffff811115610ec257610ec2612604565b604051908082528060200260200182016040528015610efb57816020015b610ee8612565565b815260200190600190039081610ee05790505b509150600060015b6002548111610e10576000818152600660205260409020600b015460ff16158015610f44575060008181526006602052604090206007810154600990910154105b8015610f6957506000818152600660205260409020600101546001600160a01b031633145b156112f45760008181526006602090815260409182902082516101a0810184528154815260018201546001600160a01b0316928101929092526002810180549293919291840191610fb990612bf8565b80601f0160208091040260200160405190810160405280929190818152602001828054610fe590612bf8565b80156110325780601f1061100757610100808354040283529160200191611032565b820191906000526020600020905b81548152906001019060200180831161101557829003601f168201915b5050505050815260200160038201805461104b90612bf8565b80601f016020809104026020016040519081016040528092919081815260200182805461107790612bf8565b80156110c45780601f10611099576101008083540402835291602001916110c4565b820191906000526020600020905b8154815290600101906020018083116110a757829003601f168201915b505050505081526020016004820180546110dd90612bf8565b80601f016020809104026020016040519081016040528092919081815260200182805461110990612bf8565b80156111565780601f1061112b57610100808354040283529160200191611156565b820191906000526020600020905b81548152906001019060200180831161113957829003601f168201915b5050505050815260200160058201805461116f90612bf8565b80601f016020809104026020016040519081016040528092919081815260200182805461119b90612bf8565b80156111e85780601f106111bd576101008083540402835291602001916111e8565b820191906000526020600020905b8154815290600101906020018083116111cb57829003601f168201915b5050505050815260200160068201805461120190612bf8565b80601f016020809104026020016040519081016040528092919081815260200182805461122d90612bf8565b801561127a5780601f1061124f5761010080835404028352916020019161127a565b820191906000526020600020905b81548152906001019060200180831161125d57829003601f168201915b5050509183525050600782015460208201526008820154604082015260098201546060820152600a8201546080820152600b9091015460ff808216151560a084015261010090910416151560c09091015284836112d681612d56565b9450815181106112e8576112e8612d6f565b60200260200101819052505b806112fe81612d56565b915050610f03565b61130e6122ad565b6113186000612307565b565b60009182526001602090815260408084206001600160a01b0393909316845291905290205460ff1690565b606060076000838152602001908152602001600020805480602002602001604051908101604052809291908181526020016000905b8282101561150e57838290600052602060002090600702016040518060e001604052908160008201548152602001600182015481526020016002820180546113c190612bf8565b80601f01602080910402602001604051908101604052809291908181526020018280546113ed90612bf8565b801561143a5780601f1061140f5761010080835404028352916020019161143a565b820191906000526020600020905b81548152906001019060200180831161141d57829003601f168201915b50505050508152602001600382015481526020016004820154815260200160058201805461146790612bf8565b80601f016020809104026020016040519081016040528092919081815260200182805461149390612bf8565b80156114e05780601f106114b5576101008083540402835291602001916114e0565b820191906000526020600020905b8154815290600101906020018083116114c357829003601f168201915b5050509183525050600691909101546001600160a01b0316602091820152908252600192909201910161137a565b505050509050919050565b6115216122ad565b60008181526008602052604090205460ff1661154f5760405162461bcd60e51b815260040161050790612d85565b6000908152600660205260409020600b01805461ff001981166101009182900460ff1615909102179055565b60055460405163a9059cbb60e01b81526001600160a01b03848116600483015260248201849052600092169063a9059cbb906044016020604051808303816000875af11580156115cf573d6000803e3d6000fd5b505050506040513d601f19601f820116820180604052508101906115f39190612db0565b6116315760405162461bcd60e51b815260206004820152600f60248201526e151c985b9cd9995c8819985a5b1959608a1b6044820152606401610507565b50600192915050565b60008181526008602052604090205460ff166116685760405162461bcd60e51b815260040161050790612d85565b6000818152600660205260409020600101546001600160a01b031633146116c75760405162461bcd60e51b8152602060048201526013602482015272556e617574686f72697a656420456e7469747960681b6044820152606401610507565b6000908152600660205260409020600b01805460ff19166001179055565b60008281526001602081905260409091200154611701816121d1565b6108378383612246565b60008781526008602052604090205460ff166117395760405162461bcd60e51b815260040161050790612d85565b6000878152600660205260409020600101546001600160a01b031633146117985760405162461bcd60e51b8152602060048201526013602482015272556e617574686f72697a656420456e7469747960681b6044820152606401610507565b60008651116117e05760405162461bcd60e51b81526020600482015260146024820152734e616d652063616e6e6f7420626520656d70747960601b6044820152606401610507565b600085511161182c5760405162461bcd60e51b815260206004820152601860248201527746756c6c6e616d652063616e6e6f7420626520656d70747960401b6044820152606401610507565b600083511161187d5760405162461bcd60e51b815260206004820152601b60248201527f4465736372697074696f6e2063616e6e6f7420626520656d70747900000000006044820152606401610507565b60008451116118c85760405162461bcd60e51b815260206004820152601760248201527650726f66696c652063616e6e6f7420626520656d70747960481b6044820152606401610507565b60008251116119115760405162461bcd60e51b8152602060048201526015602482015274496d6167652063616e6e6f7420626520656d70747960581b6044820152606401610507565b600081116119595760405162461bcd60e51b8152602060048201526015602482015274416d6f756e742063616e6e6f74206265207a65726f60581b6044820152606401610507565b60008781526006602052604090206002016119748782612c80565b5060008781526006602052604090206003016119908682612c80565b5060008781526006602052604090206005016119ac8382612c80565b50600087815260066020819052604090912060078101839055016119d08582612c80565b5060008781526006602052604090206004016119ec8482612c80565b5050505050505050565b60008381526008602052604090205460ff16611a245760405162461bcd60e51b815260040161050790612d85565b6000838152600660205260409020600b0154610100900460ff1615611a8b5760405162461bcd60e51b815260206004820152601d60248201527f436861726974792042616e6e65642c20636f6e746163742061646d696e0000006044820152606401610507565b60003411611ad55760405162461bcd60e51b8152602060048201526017602482015276446f6e6174696f6e2063616e6e6f74206265207a65726f60481b6044820152606401610507565b6005546040516370a0823160e01b81523360048201526000916001600160a01b0316906370a0823190602401602060405180830381865afa158015611b1e573d6000803e3d6000fd5b505050506040513d601f19601f82011682018060405250810190611b429190612dd2565b11611b895760405162461bcd60e51b8152602060048201526017602482015276446f6e6174696f6e2063616e6e6f74206265207a65726f60481b6044820152606401610507565b6000838152600660205260409020600781015460099091015410611bef5760405162461bcd60e51b815260206004820152601860248201527f43686172697479206275646765742066756c66696c6c656400000000000000006044820152606401610507565b611bfd600380546001019055565b611c466040518060e0016040528060008152602001600081526020016060815260200160008152602001600081526020016060815260200160006001600160a01b031681525090565b600354815260208101849052604081018390523360c082015234606082015260a08101829052611c746121b2565b608082015260008481526007602081815260408084208054600181810183559186529483902086519590940290930193845590840151918301919091558201518291906002820190611cc69082612c80565b50606082015160038201556080820151600482015560a08201516005820190611cef9082612c80565b5060c09190910151600691820180546001600160a01b0319166001600160a01b039092169190911790556000858152602091909152604081206009018054349290611d3b908490612deb565b90915550506000848152600660205260408120600801805460019290611d62908490612deb565b9091555050600454600090606490611d7a9034612dfe565b611d849190612e15565b90506000611d928234612e37565b600087815260066020526040902060010154909150611dba906001600160a01b03168261157b565b50611dc5308361157b565b50505050505050565b611dd66122ad565b6001600160a01b038116611e3b5760405162461bcd60e51b815260206004820152602660248201527f4f776e61626c653a206e6577206f776e657220697320746865207a65726f206160448201526564647265737360d01b6064820152608401610507565b611e4481612307565b50565b611e4f612565565b60008281526006602090815260409182902082516101a0810184528154815260018201546001600160a01b0316928101929092526002810180549293919291840191611e9a90612bf8565b80601f0160208091040260200160405190810160405280929190818152602001828054611ec690612bf8565b8015611f135780601f10611ee857610100808354040283529160200191611f13565b820191906000526020600020905b815481529060010190602001808311611ef657829003601f168201915b50505050508152602001600382018054611f2c90612bf8565b80601f0160208091040260200160405190810160405280929190818152602001828054611f5890612bf8565b8015611fa55780601f10611f7a57610100808354040283529160200191611fa5565b820191906000526020600020905b815481529060010190602001808311611f8857829003601f168201915b50505050508152602001600482018054611fbe90612bf8565b80601f0160208091040260200160405190810160405280929190818152602001828054611fea90612bf8565b80156120375780601f1061200c57610100808354040283529160200191612037565b820191906000526020600020905b81548152906001019060200180831161201a57829003601f168201915b5050505050815260200160058201805461205090612bf8565b80601f016020809104026020016040519081016040528092919081815260200182805461207c90612bf8565b80156120c95780601f1061209e576101008083540402835291602001916120c9565b820191906000526020600020905b8154815290600101906020018083116120ac57829003601f168201915b505050505081526020016006820180546120e290612bf8565b80601f016020809104026020016040519081016040528092919081815260200182805461210e90612bf8565b801561215b5780601f106121305761010080835404028352916020019161215b565b820191906000526020600020905b81548152906001019060200180831161213e57829003601f168201915b5050509183525050600782015460208201526008820154604082015260098201546060820152600a8201546080820152600b9091015460ff808216151560a084015261010090910416151560c09091015292915050565b60006121c0426103e8612dfe565b6121cc906103e8612deb565b905090565b611e448133612357565b6121e5828261131a565b6108b65760008281526001602081815260408084206001600160a01b0386168086529252808420805460ff19169093179092559051339285917f2f8788117e7eff1d82e926ec794901d17c78024a50270940304540a733656f0d9190a45050565b612250828261131a565b156108b65760008281526001602090815260408083206001600160a01b0385168085529252808320805460ff1916905551339285917ff6391f5c32d9c69d2a47ea670b442974b53935d1edc7fd64eb21e047a839171b9190a45050565b6000546001600160a01b031633146113185760405162461bcd60e51b815260206004820181905260248201527f4f776e61626c653a2063616c6c6572206973206e6f7420746865206f776e65726044820152606401610507565b600080546001600160a01b038381166001600160a01b0319831681178455604051919092169283917f8be0079c531659141344cd1fd0a4f28419497f9722a3daafe3b4186f6b6457e09190a35050565b612361828261131a565b6108b65761236e816123b0565b6123798360206123c2565b60405160200161238a929190612e4a565b60408051601f198184030181529082905262461bcd60e51b825261050791600401612ebf565b60606104bd6001600160a01b03831660145b606060006123d1836002612dfe565b6123dc906002612deb565b67ffffffffffffffff8111156123f4576123f4612604565b6040519080825280601f01601f19166020018201604052801561241e576020820181803683370190505b509050600360fc1b8160008151811061243957612439612d6f565b60200101906001600160f81b031916908160001a905350600f60fb1b8160018151811061246857612468612d6f565b60200101906001600160f81b031916908160001a905350600061248c846002612dfe565b612497906001612deb565b90505b600181111561250f576f181899199a1a9b1b9c1cb0b131b232b360811b85600f16601081106124cb576124cb612d6f565b1a60f81b8282815181106124e1576124e1612d6f565b60200101906001600160f81b031916908160001a90535060049490941c9361250881612ed2565b905061249a565b50831561255e5760405162461bcd60e51b815260206004820181905260248201527f537472696e67733a20686578206c656e67746820696e73756666696369656e746044820152606401610507565b9392505050565b604051806101a001604052806000815260200160006001600160a01b031681526020016060815260200160608152602001606081526020016060815260200160608152602001600081526020016000815260200160008152602001600081526020016000151581526020016000151581525090565b6000602082840312156125ec57600080fd5b81356001600160e01b03198116811461255e57600080fd5b634e487b7160e01b600052604160045260246000fd5b600082601f83011261262b57600080fd5b813567ffffffffffffffff8082111561264657612646612604565b604051601f8301601f19908116603f0116810190828211818310171561266e5761266e612604565b8160405283815286602085880101111561268757600080fd5b836020870160208301376000602085830101528094505050505092915050565b60008060008060008060c087890312156126c057600080fd5b863567ffffffffffffffff808211156126d857600080fd5b6126e48a838b0161261a565b975060208901359150808211156126fa57600080fd5b6127068a838b0161261a565b9650604089013591508082111561271c57600080fd5b6127288a838b0161261a565b9550606089013591508082111561273e57600080fd5b61274a8a838b0161261a565b9450608089013591508082111561276057600080fd5b5061276d89828a0161261a565b92505060a087013590509295509295509295565b60006020828403121561279357600080fd5b5035919050565b80356001600160a01b03811681146127b157600080fd5b919050565b600080604083850312156127c957600080fd5b823591506127d96020840161279a565b90509250929050565b60005b838110156127fd5781810151838201526020016127e5565b50506000910152565b6000815180845261281e8160208601602086016127e2565b601f01601f19169290920160200192915050565b60006101a082518452602083015161285560208601826001600160a01b03169052565b50604083015181604086015261286d82860182612806565b915050606083015184820360608601526128878282612806565b915050608083015184820360808601526128a18282612806565b91505060a083015184820360a08601526128bb8282612806565b91505060c083015184820360c08601526128d58282612806565b60e08581015190870152610100808601519087015261012080860151908701526101408086015190870152610160808601511515908701526101809485015115159490950193909352509192915050565b6000602080830181845280855180835260408601915060408160051b870101925083870160005b8281101561297b57603f19888603018452612969858351612832565b9450928501929085019060010161294d565b5092979650505050505050565b60006020808301818452808551808352604092508286019150828160051b87010184880160005b83811015612a4057603f19898403018552815160e08151855288820151898601528782015181898701526129e582870182612806565b9150506060808301518187015250608080830151818701525060a08083015186830382880152612a158382612806565b60c0948501516001600160a01b031697909401969096525050948701949250908601906001016129af565b509098975050505050505050565b60008060408385031215612a6157600080fd5b612a6a8361279a565b946020939093013593505050565b600080600080600080600060e0888a031215612a9357600080fd5b87359650602088013567ffffffffffffffff80821115612ab257600080fd5b612abe8b838c0161261a565b975060408a0135915080821115612ad457600080fd5b612ae08b838c0161261a565b965060608a0135915080821115612af657600080fd5b612b028b838c0161261a565b955060808a0135915080821115612b1857600080fd5b612b248b838c0161261a565b945060a08a0135915080821115612b3a57600080fd5b50612b478a828b0161261a565b92505060c0880135905092959891949750929550565b600080600060608486031215612b7257600080fd5b83359250602084013567ffffffffffffffff80821115612b9157600080fd5b612b9d8783880161261a565b93506040860135915080821115612bb357600080fd5b50612bc08682870161261a565b9150509250925092565b600060208284031215612bdc57600080fd5b61255e8261279a565b60208152600061255e6020830184612832565b600181811c90821680612c0c57607f821691505b602082108103612c2c57634e487b7160e01b600052602260045260246000fd5b50919050565b601f82111561083757600081815260208120601f850160051c81016020861015612c595750805b601f850160051c820191505b81811015612c7857828155600101612c65565b505050505050565b815167ffffffffffffffff811115612c9a57612c9a612604565b612cae81612ca88454612bf8565b84612c32565b602080601f831160018114612ce35760008415612ccb5750858301515b600019600386901b1c1916600185901b178555612c78565b600085815260208120601f198616915b82811015612d1257888601518255948401946001909101908401612cf3565b5085821015612d305787850151600019600388901b60f8161c191681555b5050505050600190811b01905550565b634e487b7160e01b600052601160045260246000fd5b600060018201612d6857612d68612d40565b5060010190565b634e487b7160e01b600052603260045260246000fd5b60208082526011908201527010da185c9a5d1e48139bdd08119bdd5b99607a1b604082015260600190565b600060208284031215612dc257600080fd5b8151801515811461255e57600080fd5b600060208284031215612de457600080fd5b5051919050565b808201808211156104bd576104bd612d40565b80820281158282048414176104bd576104bd612d40565b600082612e3257634e487b7160e01b600052601260045260246000fd5b500490565b818103818111156104bd576104bd612d40565b7f416363657373436f6e74726f6c3a206163636f756e7420000000000000000000815260008351612e828160178501602088016127e2565b7001034b99036b4b9b9b4b733903937b6329607d1b6017918401918201528351612eb38160288401602088016127e2565b01602801949350505050565b60208152600061255e6020830184612806565b600081612ee157612ee1612d40565b50600019019056fea264697066735822122016adfac891979240e63b197b7b931199d36773f5c1115837cd7e128c297c44d364736f6c63430008130033",
  "linkReferences": {},
  "deployedLinkReferences": {}
}